:100000000C942C040C9473040C9473040C947304DB
:100010000C9473040C9473040C9473040C94730484
:100020000C9473040C9473040C948F1F0C94622032
:100030000C9468160C9473040C9473040C9473045D
:100040000C9473040C9473040C9473040C94730454
:100050000C9473040C94D0160C9473040C947304D5
:100060000C9473040C9473040C9473040C94730434
:100070000C9473040C9473040C9473040C94730424
:100080000C9473040C9473040C9473040C94730414
:100090000C9473040C9473040C9473040C94730404
:1000A0000C9473040C9473040C9473042B001400CC
:1000B0001A000800150017001C0018000C001200A0
:1000C00013002A00E00004001600070009000A00DF
:1000D0000B000D000E000F0000002800E1000000E2
:1000E0001D001B000600190005001100100036005D
:1000F000370038000351E200E30000002C412C429D
:10010000000000000000330034002D0029001E0014
:100110001F002000210022002300240025002600CB
:100120002700010039001E021F02200221022202C4
:10013000230224022502260200002702E10000001B
:100140002E002E022F023002310031022F0030002B
:100150005200010001000100010000000100010047
:10016000000000000000500051004F003A003B002A
:100170003C003D003E003F00400041004200430083
:10018000440045000100010001000100010046009B
:1001900048004A004D00490000004C00007000007B
:1001A00001000100010001003270307031703370C5
:1001B0004B000100A6000100010000000100010049
:1001C00000000000000001004E0001001E041F049A
:1001D0002004210422042304010001000100010085
:1001E0000100010001000100010001000100010007
:1001F00001000100010001000000010001000000F9
:1002000001000100010001000100010001000100E6
:1002100001000100010001000100000001000100D7
:1002200000000000000001000100010001000100C9
:1002300001000100010001000100010001000100B6
:1002400001000100010001000100010001000100A6
:100250000100010001000100000001000100000098
:100260000100010001000100010001000100010086
:100270000100010001000100010000000100010077
:100280000000000000000100010001000100010069
:100290000100010001000100010001000100010056
:1002A0000100010001000100010001000100010046
:1002B0000100010001000100000001000100000038
:1002C0000100010001000100010001000100010026
:1002D0000100010001000100010000000100010017
:1002E0000000000000000100010001000100010009
:1002F00001000100010001000100010001000100F6
:1003000001000100010001000100010001000100E5
:1003100001000100010001000000010001000000D7
:1003200001000100010001000100010001000100C5
:1003300001000100010001000100000001000100B6
:1003400000000000000001000100010001000100A8
:100350000100010001000100010001000100010095
:100360000100010001000100010001000100010085
:100370000100010001000100000001000100000077
:100380000100010001000100010001000100010065
:100390000100010001000100010000000100010056
:1003A0000000000000000100010001000100010048
:1003B0000100010001000100010001000100010035
:1003C0000100010001000100010001000100010025
:1003D0000100010001000100000001000100000017
:1003E0000100010001000100010001000100010005
:1003F00001000100010001000100000001000100F6
:1004000000000000000001000100010001000100E7
:1004100001000100010001000100010001000100D4
:1004200001000100010001000100010001000100C4
:1004300001000100010001000000010001000000B6
:1004400001000100010001000100010001000100A4
:100450000100010001000100010000000100010095
:100460000000000000000100010001000100010087
:100470000100010001000100010001000100010074
:100480000100010001000100010001000100010064
:100490000100010001000100000001000100000056
:1004A0000100010001000100010001000100010044
:1004B0000100010001000100010000000100010035
:1004C0000000000000000100010001000100010027
:1004D0000100010001000100010001000100010014
:1004E0000100010001000100010001000100010004
:1004F00001000100010001000000010001000000F6
:1005000001000100010001000100010001000100E3
:1005100001000100010001000100000001000100D4
:1005200000000000000001000100010001000100C6
:1005300001000100010001000100010001000100B3
:1005400001000100010001000100010001000100A3
:100550000100010001000100000001000100000095
:100560000100010001000100010001000100010083
:100570000100010001000100010000000100010074
:100580000000000000000100010001000100010066
:100590000100010001000100010001000100010053
:1005A0000100010001000100010001000100010043
:1005B0000100010001000100000001000100000035
:1005C0000100010001000100010001000100010023
:1005D0000100010001000100010000000100010014
:1005E0000000000000000100010001000100010006
:1005F00001000100010001000100010001000100F3
:1006000001000100010001000100010001000100E2
:1006100001000100010001000000010001000000D4
:1006200001000100010001000100010001000100C2
:1006300001000100010001000100000001000100B3
:1006400000000000000001000100010001000100A5
:100650000100010001000100010001000100010092
:100660000100010001000100010001000100010082
:100670000100010001000100000001000100000074
:100680000100010001000100010001000100010062
:100690000100010001000100010000000100010053
:1006A00000000000000001000100010012036B00C7
:1006B0006500790062006F00610072006400000054
:1006C000160371006D006B006200750069006C001C
:1006D00064006500720000000403090409026D0053
:1006E000040100A0FA09040000010301010009212E
:1006F000110100012240000705810308000A0904D6
:1007000001000103010200092111010001224D0035
:100710000705820308000A09040200010300000023
:100720000921110100012236000705830308000A90
:100730000904030001030000000921110100012246
:100740003900070584032000011201100100000098
:1007500008EDFE606001000102000105010906A12B
:1007600001050719E029E7150025019508750181A4
:100770000205081901290595057501910295017574
:100780000391010507190029F71500250195F87552
:10079000018102C005010980A10185021601002620
:1007A00003001A81002A8300751095018100C0059D
:1007B0000C0901A1018503160100269C021A010003
:1007C0002A9C02751095018100C005010902A10152
:1007D0000901A10005091901290515002501950543
:1007E0007501810295017503810105010930093107
:1007F0001581257F95027508810609381581257FA9
:10080000950175088106050C0A38021581257F952A
:100810000175088106C0C005010906A10105071977
:10082000E029E715002501950875018102950175FC
:1008300008810105081901290595057501910295A1
:1008400001750391010507190029FF150026FF0016
:10085000950675088100C00011241FBECFEFDAE0B5
:10086000DEBFCDBF04B603FE27C080913102909158
:100870003202A0913302B09134028730904BA740EE
:10088000B04BD1F410923102109232021092330226
:100890001092340214BE84B7877F84BF0FB6F894D9
:1008A000A89580916000886180936000109260003C
:1008B0000FBEE0E0F8E3099511E0A0E0B1E0ECE460
:1008C000F7E402C005900D92A833B107D9F722E0F2
:1008D000A8E3B1E001C01D92A133B207E1F70E9485
:1008E000DE1C0C94A4230C94000090E080E008959A
:1008F0000895089581E0089581FF03C0229A2A98FF
:1009000008952298FCCF81E008950C947A040E9407
:10091000CE0E2FEF84E39CE0215080409040E1F721
:1009200000C000000C94F516FF920F931F93CF9315
:10093000DF938C01FC01C081D18180916C01811118
:100940003FC082818823B9F1CE010E943514F82E70
:10095000682FCE010E94DB13BE018F2D0E94190665
:10096000EC01B8010E948504882309F44AC0B8014B
:10097000CE010E944908882309F443C0C531F0E73D
:10098000DF0718F5C23080E7D80708F04BC0C11563
:10099000E0E7DE0789F1C130D047D1F181E08093F3
:1009A0003A0180933B01C801DF91CF911F910F91D4
:1009B000FF900C948304CE010E940A14F82ECCCF31
:1009C000CE010E943514BE01C9CFCC3380E7D807D1
:1009D00009F4ACC0CD33D04709F7F80182818823F0
:1009E00009F4CBC010923B010E949A1690933901F2
:1009F0008093380180E2A7C0F801828181110E94B2
:100A0000870480E0DF91CF911F910F91FF900895AF
:100A1000F80182818823A9F38091F001816080939D
:100A2000F001EFCFF8018281882309F4BCCF0E9446
:100A3000EB15811102C00E94CC150E94081690E0AF
:100A40009093220280932102FE01E350F0478091AF
:100A500021028160E231F105C8F4EF5CFA4F0C9499
:100A6000542343054F05530557055B055F05630593
:100A700067056B056F05730577057B057F058305A6
:100A800087058B058F05809121028260809321026A
:100A9000809121020E940C160E94CE0EB2CF80914E
:100AA00021028460F3CF809121028860EFCF809192
:100AB00021028061EBCF809121028062E7CF80919B
:100AC00021028064E3CF809121028068DFCF809192
:100AD00021028460EACF809121028E7FD7CF80915E
:100AE00021028D7FD3CF809121028B7FCFCF809148
:100AF0002102877FCBCF809121028F7EC7CF80914B
:100B000021028F7DC3CF809121028F7BBFCF809147
:100B100021028F77BBCF809121028B7FEACF90910A
:100B20002102892F97FB87F98058B0CFF801828185
:100B3000882361F010923A010E949A16909339012D
:100B40008093380182E00E94380C5BCF80913A019B
:100B500081110FC080913801909139010E94A61631
:100B6000883C910530F486E20E940D0B86E20E94DB
:100B7000E90B82E00E943F0C44CF80913B01811140
:100B80000FC080913801909139010E94A616883CCF
:100B9000910530F487E20E940D0B87E20E94E90B79
:100BA00080E2E8CF0C949A08269A2E988FEF9FEF58
:100BB000909387008093860082E28093800089E191
:100BC000809381000C94931A0E94D4050C94980889
:100BD000282F2E9880918000211108C08F7D80934E
:100BE000800010928B0010928A000895806280939A
:100BF0008000243039F48FEF9FEF90938B00809327
:100C00008A00089584E090E0821B9109880F991F63
:100C10002FEF3FEF02C0369527958A95E2F7309384
:100C20008B0020938A0008950C947C040C94140685
:100C30000895972F70E02CE0929F600D711D112494
:100C4000FB0190E3899FE00DF11D1124EE0FFF1FC2
:100C5000E455FF4F859194910895FC01EE0FFF1F1D
:100C6000E455F94F8591949108950E9419060E94C8
:100C7000C807811520E5920708F040C0811530E4CF
:100C8000930708F0FAC0883E910518F5803E91055B
:100C900008F07DC1883A910580F4853A910508F005
:100CA00087C08130910509F472C120F0843091052C
:100CB00008F06DC190E080E008958D3B910508F447
:100CC00082C0803C9105B0F3805C91090E942D06A2
:100CD0000895811540E2940750F4811521E09207B0
:100CE00008F055C1803F910528F39065089581155E
:100CF00030E3930708F0BEC09F70E8CF811545E54B
:100D0000940760F5811524E5920708F0E5C0811588
:100D100032E5930750F4811541E5940708F4B0C01B
:100D2000982F8827816F906A0895282F26952695F9
:100D3000AC01437055278115934508F0BEC081E092
:100D400090E002C0880F991F4A95E2F740E2249F85
:100D500090011124822B932B9C680895803340E7E7
:100D6000940798F4803220E7920708F0BFC08115FD
:100D700036E5930708F4B5C09C0130569F702115E5
:100D8000304108F097CF90620895813320E79207B1
:100D900009F4B3C008F4AEC0823340E7940709F405
:100DA000AFC08333904709F085CF80E093ED08957D
:100DB000853A910509F4A7C0863A910509F0A6C0C5
:100DC00082E890E40895883A910509F4A2C0893A2E
:100DD000910509F4A1C08A3A910509F4A0C08B3AA3
:100DE000910509F49FC08C3A910509F49EC08B3B94
:100DF000910509F49DC08C3B910509F49CC08D3A86
:100E0000910509F49BC0803B910509F49AC08E3A84
:100E1000910509F499C08F3A910509F498C0813B76
:100E2000910509F497C0823B910509F496C0833B74
:100E3000910509F495C0843B910509F494C0853B64
:100E4000910509F493C0863B910509F492C0873B54
:100E5000910509F491C0883B910509F490C0893B44
:100E6000910509F48FC08A3B910509F48EC080E09A
:100E700094E408959927906C08959F70906A08955E
:100E80009C0154E0369527955A95E1F7922F93707F
:100E9000482F437021E030E002C0220F331F4A95F3
:100EA000E2F73C68392B86958695837040E2849FF3
:100EB000C0011124822B932B089581E090E002C0A1
:100EC000880F991F4A95E2F740E2249F9001112470
:100ED000822B932B9A680895982F8827846F906AA5
:100EE0000895982F882788279F714DCF805290476B
:100EF000946D089580E091ED089580E090ED08955F
:100F000080E092ED089581E890E4089583E890E40C
:100F1000089582EE94E4089589EE94E408958AEEAB
:100F200094E4089585EB94E4089586EB94E40895A1
:100F300083EB94E4089584EB94E4089587EB94E4C0
:100F400008958CEC94E408958DEC94E4089583E87E
:100F500095E408958AE895E4089582E995E4089572
:100F600084E995E4089581E296E4089583E296E4A5
:100F7000089584E296E4089585E296E4089586E271
:100F800096E4089587E296E408958AE296E4089547
:100F90008238910549F1B0F48133910509F45CC0C0
:100FA00048F48932910509F452C08A32910509F456
:100FB00058C008958533910509F444C089339105DB
:100FC00099F00895833E910531F138F4803E910502
:100FD00091F0823E9105B1F00895863E910511F1A0
:100FE000873E910541F10895209121022370C9F0B7
:100FF00080EE90E008952091210220FF12C089E345
:1010000090E008952091210222FF0BC024FF2EC002
:1010100090E080E008952091210222FD2AC024FD65
:10102000F7CF08952091210223FFFBCF24FDF0CFBD
:1010300087EE90E008952091210223FFF0CF86EE05
:1010400090E008952091210225FD16C00895209179
:10105000210225FD14C008952091210226FD12C011
:1010600008952091210226FD10C0089583EE90E09E
:10107000089582EE90E0089589E290E0089585E376
:1010800090E008958AE290E0089581E390E0C9CF6E
:1010900008950F931F93CF938C01FB0182818111DF
:1010A00006C0C1E08C2FCF911F910F910895C09180
:1010B0004901C11125C00531104799F70E94480820
:1010C00081E0809349010E949A1690934801809391
:1010D000470110923C0110923E0110923D01109286
:1010E000400110923F011092420110924101109272
:1010F0004401109243011092460110924501D2CF53
:1011000080914701909148010E94A616883C910564
:1011100040F680913C01E82FF0E0EE0FFF1FE35C0A
:10112000FE4F118300838F5F80933C01C0E0BACFF4
:101130000C9478040C947904CF93DF9385B780687E
:1011400085BF85B7806885BFAFE1B1E043E251E07C
:10115000C1E0D0E08D91E82FE295EF70F0E061A161
:101160008F709E0101C0220F8A95EAF7922F909509
:10117000962391A382A1822B82A34A175B0751F782
:10118000A3E1B1E04FE151E0C1E0D0E08D91E82F63
:10119000E295EF70F0E061A18F709E0101C0220F17
:1011A0008A95EAF7922F9095962391A382A1822B9C
:1011B00082A34A175B0751F7109253011092520114
:1011C00010924B0110924A01109255011092540155
:1011D00010924D0110924C0110925701109256013D
:1011E00010924F0110924E01109259011092580125
:1011F0001092510110925001DF91CF910C94E405AF
:101200004F925F927F928F929F92AF92BF92CF92B6
:10121000DF92EF92FF920F931F93CF93DF93CAE475
:10122000D1E00FE111E093E2A92E91E0B92EEE2476
:10123000E394F12C99249394C880D9801982188260
:10124000D8018D918D01E82FE295EF70F0E091A12A
:101250008F70970101C0220F8A95EAF7892F822BA0
:1012600081A382A1822E8094882182A3B0EABA95BC
:10127000F1F783E1482E81E0582E90E080E0D20122
:101280007D912D01472F42954F7050E0DA019096E5
:101290007C90488159817F70D70102C0AA0FBB1F83
:1012A0007A95E2F7BD01672109F068C0B701082E01
:1012B00002C0660F771F0A94E2F7462B572B59831B
:1012C000488301968C309105D1F681A1882281A2B4
:1012D00082A1282B22A388819981C816D90641F0C2
:1012E00090925A010E949A1690935C0180935B0140
:1012F0002296A016B10609F09FCF80915A0188234B
:1013000051F180915B0190915C010E94A6160697B5
:1013100010F180914A0190914B0190935301809379
:10132000520180914C0190914D0190935501809311
:10133000540180914E0190914F01909357018093F9
:1013400056018091500190915101909359018093E1
:10135000580110925A010E94D20581E0DF91CF918D
:101360001F910F91FF90EF90DF90CF90BF90AF90C3
:101370009F908F907F905F904F90089570E060E015
:101380009CCFE82FF0E0EE0FFF1FEE5AFE4F80815A
:101390009181089508959093620180936101089569
:1013A000E0916101F0916201309721F00190F081AC
:1013B000E02D099480E00895E0916101F0916201CF
:1013C000309721F00280F381E02D09940895E09197
:1013D0006101F0916201309721F00480F581E02DE8
:1013E0000994089520915F01309160012817390711
:1013F00071F09093600180935F01E0916101F09141
:101400006201309721F00680F781E02D099408955C
:1014100020915D0130915E012817390771F090939A
:101420005E0180935D01E0916101F091620130976E
:1014300021F00084F185E02D0994089508950C941D
:101440001E0A0E9491160E949C080E9462170C942A
:10145000931A5F926F927F928F929F92AF92BF92F8
:10146000CF92DF92EF92FF920F931F93CF93DF9370
:10147000CDB7DEB72A970FB6F894DEBF0FBECDBF4B
:101480000E94000994E6A92E91E0B92E10E000E038
:1014900088248394912C502E802F0E94C1097C01B6
:1014A000F501C190D1905F01C816D90609F45EC05C
:1014B0008091F00181FD0E94CA0990E080E0CE2475
:1014C000DF243401082E02C0660C771C0A94E2F770
:1014D000960126213721232B09F443C08E835F8296
:1014E000E620F72081E0EF2809F480E088870E9459
:1014F0009A168160782F9A8789874E815F816885E7
:101500008A850E94E30A000F111FF801EC59FE4F73
:101510008081918168267926718260820E94E51916
:101520000E94D009909163018917B9F10E94D009F6
:10153000809363012A960FB6F894DEBF0FBECDBF2D
:10154000DF91CF911F910F91FF90EF90DF90CF909F
:10155000BF90AF909F908F907F906F905F900C9412
:10156000160601968C30910509F0ABCF0F5F1F4F27
:101570000430110509F08FCF8FEF89838A831B8296
:101580000E949A168160782F9D838C8349815A81AD
:101590006B818D810E94E30AC1CF2A960FB6F89421
:1015A000DEBF0FBECDBFDF91CF911F910F91FF9096
:1015B000EF90DF90CF90BF90AF909F908F907F90F3
:1015C0006F905F900895CF93DF93CDB7DEB72B97E1
:1015D0000FB6F894DEBF0FBECDBF4F835887698723
:1015E0007A878B871E821D8285E0FE013796DE0199
:1015F000119601900D928A95E1F749815A816B818C
:101600007C818D819E812B960FB6F894DEBF0FBE34
:10161000CDBFDF91CF910C948011882309F4D8C0FD
:10162000823871F40E94D00981FDD2C089E30E9402
:10163000D5140E949D1589E30E9412150C949D15E6
:10164000833859F40E94D00980FDC2C083E50E940E
:10165000D5140E949D1583E5EFCF843859F40E947C
:10166000D00982FDB5C087E40E94D5140E949D1563
:1016700087E4E2CF9CEF980F913A18F40E94D514BA
:10168000DDCF90E2980F983050F4877091E001C060
:10169000990F8A95EAF7892F0E945415CFCF9BE5C1
:1016A000980F933070F4853A31F0863A39F083E838
:1016B00090E00C94F20981E890E0FBCF82E890E0A2
:1016C000F8CF98E5980F953108F082C0883A09F470
:1016D00040C0893A09F440C08A3A09F440C08B3AC4
:1016E00009F440C08C3A09F440C08B3B09F440C077
:1016F0008C3B09F440C08D3A09F440C0803B09F4AA
:1017000040C08E3A09F440C08F3A09F440C0813B92
:1017100009F440C0823B09F440C0833B09F440C057
:10172000843B09F440C0853B09F440C0863B09F482
:1017300040C0873B09F440C0883B09F440C0893B66
:1017400009F440C08A3B09F440C090E080E00C946A
:10175000080A82EE90E0FBCF89EE90E0F8CF8AEEA7
:1017600090E0F5CF85EB90E0F2CF86EB90E0EFCF05
:1017700083EB90E0ECCF84EB90E0E9CF87EB90E057
:10178000E6CF8CEC90E0E3CF8DEC90E0E0CF83E807
:1017900091E0DDCF8AE891E0DACF82E991E0D7CF1E
:1017A00084E991E0D4CF81E292E0D1CF83E292E06C
:1017B000CECF84E292E0CBCF85E292E0C8CF86E242
:1017C00092E0C5CF87E292E0C2CF8AE292E0BFCF3B
:1017D0000895882309F44BC0823871F40E94D0091F
:1017E00081FF45C089E30E94D5140E949D1589E3BD
:1017F0000E9412150C949D15833859F40E94D0094B
:1018000080FF35C083E50E94D5140E949D1583E5B5
:10181000EFCF843859F40E94D00982FF28C087E4B2
:101820000E94D5140E949D1587E4E2CF9CEF980F8B
:10183000913AF0F290E2980F983050F4877091E06E
:1018400001C0990F8A95EAF7892F0E945A15D2CFC5
:101850009BE5980F933020F490E080E00C94F2091F
:10186000885A853120F490E080E00C94080A0895AD
:10187000882321F00E9454150C949D150895882307
:1018800021F00E945A150C949D1508958F929F92F5
:10189000AF92BF92DF92EF92FF920F931F93CF937D
:1018A000DF937C01D62FC72FFC01058102950F70B5
:1018B000128111110E9473150E94CE14D82E882314
:1018C00071F0112321F180E28D0F883000F182E068
:1018D0000E94B8140E94CE1491E0D82ED926EC2F85
:1018E000E295EF70F0E0E958F34F0C945423890C23
:1018F000890CD90CD90C1B0D370DB60CB60C420D4A
:10190000B60CDA0DDA0D4D0E560EB60C760ED12C45
:10191000E6CF0C2F0F70C07F11F00295007F1123CE
:10192000A9F0002359F080E28D0F883010F0D1111A
:1019300009C0802F0E9454150E949D158D2F0E9472
:101940000D0B14C0802F0E946515F6CF8D2F0E94BD
:10195000E90B002359F080E28D0F883010F0D1118F
:1019600024C0802F0E945A150E949D15DD2009F485
:10197000C4C10E94AB1480FDC0C1F70112820E9455
:10198000A5140E941F13C7010E94890E0E94A5146E
:10199000DF91CF911F910F91FF90EF90DF90BF905B
:1019A000AF909F908F900C944013802F0E946B15E6
:1019B000DBCFFC2FFF70BF2EC07FC03219F0B29476
:1019C00080EFB822DD2369F0D13029F1112369F1CC
:1019D000002359F0F701858180FFB0CF8F70858398
:1019E00004C0112361F0011104C08B2D0E94380C3A
:1019F000BDCF8B2D0130D1F70E948715B7CF0111D4
:101A000006C00E948A158B2D0E943F0CAFCF01307B
:101A100009F4ACCFF6CF112321F0063008F0A6CFA1
:101A2000E4CF053008F0A2CFEECF002361F38D2F75
:101A30000E94E90B9BCF8C2F86958695837069F069
:101A4000813009F093CF8D2F9C2F9370111102C01C
:101A500090E080E00E94080A89CF8D2F9C2F937020
:101A6000111102C090E080E00E94F2097FCF8D2F1B
:101A7000112329F00E94EE180E94DA1977CF0E94F4
:101A80005619FACF8C2F837009F047C011116ECF11
:101A90002D2F229526952770220F220F6D2F6F7004
:101AA000862E912CB12CA12C022E04C0880C991CDE
:101AB000AA1CBB1C0A94D2F760E070E0CB01D4FFF3
:101AC0000FC06FE070E080E090E004C0660F771F09
:101AD000881F991F2A95D2F76095709580959095EB
:101AE000C695C695C370C23051F080F46829792933
:101AF0008A299B29C13071F00E94C81237CF68290A
:101B000079298A299B290E94E41230CF0E94C812A9
:101B1000C501B4010E94AC1229CF8695112311F0A2
:101B20008C2F8170882309F421CF2D2F22952695A3
:101B30002770220F220F6D2F6F70862E912CB12CE3
:101B4000A12C022E04C0880C991CAA1CBB1C0A9450
:101B5000D2F760E070E0CB01D4FF0FC06FE070E01F
:101B600080E090E004C0660F771F881F991F2A95B8
:101B7000D2F76095709580959095C695C695C3707F
:101B8000C23051F080F4682979298A299B29C13013
:101B900071F00E94A213EACE682979298A299B292B
:101BA0000E94BE13E3CE0E94A213C501B4010E949D
:101BB0008613DCCEE0E2ED0FE53108F062C0F0E024
:101BC000EC51F24F0C945423F90DF90DF90DF90D68
:101BD000F90DF90DF90DF90DF90DF90DF90DF90DD5
:101BE000F90DF90DF90DF90D060E140E1B0E220E4E
:101BF0002C0EDF708C2F8F71112321F00E941F1388
:101C00008D2FF4CE0E9440138D2FFECE112341F074
:101C1000053008F0ABCE8C2F8F710E946513A6CED5
:101C2000063008F0A3CEF7CF8C2F8F71112339F037
:101C30000E941F139BCE8C2F8F711123C9F30E941A
:101C4000401394CE112329F08C2F8F710E940A1318
:101C50008DCE0E9400138ACE112349F0CF718C2FB4
:101C60000E941F1363E08C2F0E94AF147FCE81E08F
:101C70000E94B814023008F479CE82E00E94B814B1
:101C800075CE112329F0011159CE8C2F8F71D0CF31
:101C90000111CDCE8C2F8F71D2CF4C2F4F706D2F65
:101CA000C7010E9475040E94291260CE11115ECEF8
:101CB000CF70C230A9F040F4CC2379F0C13009F0E4
:101CC00055CE0E94BC1A52CEC33069F0C43009F020
:101CD0004DCE8D2F0E940B1B49CE0E94A41A46CEDA
:101CE0000E94D51A43CE0E94E81A40CE4C2F4F7066
:101CF0006D2FC7010E94180639CEDF91CF911F9139
:101D00000F91FF90EF90DF90BF90AF909F908F90DA
:101D100008950F931F93CF93DF93EC0198818981EE
:101D20002B813C81232B39F08F3F19F481E09F3FB9
:101D300019F080E001C081E080FD17C0CE010E9453
:101D40009404882391F0688179818A810E948114AA
:101D50008C010E94DA130E94A112B801CE01DF911A
:101D6000CF911F910F910C94460CDF91CF911F9151
:101D70000F9108950E9473150E9484150E944615C4
:101D80000E949D150E94871A0E94DA1990E080E057
:101D90000E94F20990E080E00C94080A0E9462150B
:101DA0000C94BA0E0E947714E92FE295EF70E2507E
:101DB000EE30E0F4F0E0E152F14F0C945423ED0EDC
:101DC000ED0EF60EF60EF80EF60EF60EF60EED0E03
:101DD000ED0EFD0EF60EF60EFD0E803F19F020F40E
:101DE000803E20F481E00895843FE1F380E008958F
:101DF000803EC0F3813FD1F7F5CF93FB882780F970
:101E00000895CF93DF9300D000D01F92CDB7DEB7F7
:101E10000F900F900F900F900F90DF91CF9108953A
:101E2000CF93DF9300D000D000D0CDB7DEB7269699
:101E30000FB6F894DEBF0FBECDBFDF91CF910895EE
:101E40001F93CF93DF93C0916D0116E080916E01D7
:101E50008C1304C0DF91CF911F910895D0E01C9F97
:101E6000F0011D9FF00D1124E159FE4F4081518179
:101E700062817381848195810E94100F2196C770C1
:101E8000E5CF40919F015091A0016091A101709117
:101E9000A2018091A3019091A4010C94100F1F93B3
:101EA000CF93DF938091A401807FD1F48091A10131
:101EB0008823B1F080916D01D0916E01B0919F01A6
:101EC000C091A0014091A2015091A301A1E0BF3FA8
:101ED00009F0A0E0BA016095709516E0D81304C02F
:101EE000DF91CF911F91089521E04115510521F017
:101EF0002A2FCF3F09F020E090E020FD38C0189F46
:101F0000F001199FF00D1124E159FE4F21812C138E
:101F10002EC020812B132BC02281211128C02381A8
:101F200034812417350700F1241B350B283C31057B
:101F3000F0F42091A4012F7020612093A40126E0E9
:101F4000289FF001299FF00D1124EC58FE4F80814D
:101F50008F70806180838FE991E00E94890EDF910C
:101F6000CF911F910C94200F260F371FDFCF0196C2
:101F70008770B4CFAF92BF92CF92DF92EF92FF9271
:101F80000F931F93CF93DF93CDB7DEB761970FB653
:101F9000F894DEBF0FBECDBF8C0185E0F801DE01F5
:101FA0001D9601900D928A95E1F7D8014C911196FA
:101FB0005C9111971296EC9030919F016091A00175
:101FC0008091A2019091A30121E0009731F06F3F31
:101FD00019F421E03F3F09F020E0B22FB170BB2E91
:101FE00020FD80C1F801C380D480A090A101AA2067
:101FF00009F427C1C816D906D0F1D601A81BB90B20
:10200000CD01FF24F394883C910508F0F12C8091D8
:10201000A401982F907FFF2009F4CAC0911187C0B6
:10202000FE2C651329C0341327C0E11025C08F7022
:1020300080618093A4010E94410F8FE991E00E948A
:10204000890E8091A401F80185838F2D61960FB6CA
:10205000F894DEBF0FBECDBFDF91CF911F910F91DE
:10206000FF90EF90DF90CF90BF90AF900895809554
:1020700090958C0D9D1DC5CF81E0CD2831F05F3F3F
:1020800019F481E04F3F09F080E080FD24C081E039
:102090008E25F82FF170DF2E80FF3FC080916D01FB
:1020A00020916E0136E0821318C04D875E878D85C2
:1020B0009E850E947714292F22952F70223008F1D7
:1020C000243030F59F7009F1D80115969C91907FCE
:1020D000E1F4FB2CBACF80E0DCCF90E0389FF00138
:1020E000399FF00D1124E159FE4F6181561306C04E
:1020F0006081461303C062816E110FC00196877024
:10210000D2CF9F7011F0882321F3805E883008F3CE
:10211000C8010E94890EBD2CDCCFEE2009F495CFBA
:102120008091A40181608093A401F12C8ECF65136E
:1021300012C0341310C0E1100EC0F8018583C8012D
:102140000E94890E86E0F801AFE9B1E001900D929E
:102150008A95E1F741C04D875E878D859E850E94F7
:10216000D20E882309F4C8C0EE2009F4C5C08091BE
:10217000A401803270F020919F013091A001388736
:102180002F831986DB86CA868C87CE0107960E942C
:10219000890E86E0F801AFE9B1E001900D928A95D1
:1021A000E1F70E944F0F0E94410FFF24F3944DCF9F
:1021B000911115C07C2DD98AC88A6E2D89890E94FB
:1021C000010F8FE991E00E94890E86E0EFE9F1E0CE
:1021D000DF011D928A95E9F70E94410F36CF651302
:1021E00012C0341310C0E1100EC0F8018583C8017D
:1021F0000E94890EEFE9F1E086E0DF011D928A95E9
:10220000E9F7FA2C22CF4D875E878D859E850E9447
:10221000D20E882309F470C0EE2009F46DC08091BD
:10222000A401803208F4B5CF20919F013091A00124
:102230003A8329831B82DD82CC828E83CE01019674
:10224000A6CFC816D90638F1F601E81BF90BCF0165
:10225000F12C883C910508F03DC0FE2CEE2009F4DD
:102260004BC0651326C0341324C08091A40180FDA7
:1022700017C0982F907FA1F0D80115968C931597D1
:10228000903F09F45CCF982F907F905F8F70892BDF
:1022900015968C9354CF809590958C0D9D1DD8CF1D
:1022A00086E0F801AFE9B1E001900D928A95E1F77F
:1022B000CCCE4D875E878D859E850E94D20E811182
:1022C00068CF8091A40181608093A401C8010E941D
:1022D000890EBBCE7C2DD98AC88A6E2D89890E9431
:1022E000010F73CFEE2041F04D875E878D859E856F
:1022F0000E94D20E81114DCFC8010E94890E55CF88
:102300001F93CF93DF93CDB7DEB72C970FB6F8941A
:10231000DEBF0FBECDBF4F83588769877A878B8713
:102320009C87CE0107960E94BA0F882309F442C009
:102330009F8188852A853B85232B39F08F3F19F4AF
:1023400081E09F3F19F080E001C081E080FD08C07E
:102350004F81588569857A858B859C850E94100FF1
:1023600016E080916D0190916E01891709F467C0A4
:10237000819FC001112481599E4F0E94BA0F88236A
:1023800009F45DC0E0916D011E9FF0011124E15937
:10239000FE4F4081518162817381848195810E94C9
:1023A000100F80916D0190E00196877099278093BE
:1023B0006D01D7CF86E0FE013796DE0111960190C0
:1023C0000D928A95E1F79F8188852A853B85232B8D
:1023D00039F08F3F19F481E09F3F19F080E001C090
:1023E00081E080FDBDCF20916E0130E0C9010196F2
:1023F0008770992740916D014817190699F096E06A
:10240000929FD001939FB00D1124A159BE4FFE01A0
:10241000319601900D929A95E1F780936E010E949A
:10242000200F9ECF0E94CE0E10926E0110926D0171
:1024300086E0EFE9F1E0DF011D928A95E9F72C963D
:102440000FB6F894DEBF0FBECDBFDF91CF911F91C5
:102450000895EF92FF920F931F93CF93DF938C0118
:10246000892B81F0F12CEE24E394E8012196F80108
:102470008491843770F4843008F05FC08130B1F00B
:102480008230A1F1DF91CF911F910F91FF90EF90DA
:102490000895853709F44CC008F43DC09CE7980FB7
:1024A000903780F78F770E94E90B49C00E5F1F4F6E
:1024B000FE01849190E2980F983060F48770FE2DB1
:1024C00001C0FF0F8A95EAF78F2F0E9476150E94B0
:1024D0009D1502C00E940D0B8F2D815030F2EFE947
:1024E000FFE03197F1F700C00000F7CF0E5F1F4FFC
:1024F000FE01849190E2980F983050F48770FE2D81
:1025000001C0FF0F8A95EAF78F2F0E947C15DFCF5D
:102510000E94E90BE1CF0E5F1F4FFE01C491C15035
:10252000D8F28FE99FE00197F1F700C00000F7CFE4
:102530000E5F1F4FFE01F490CFCF0E940D0B8E0156
:10254000CBCF08956093C7017093C8018093C901F0
:102550009093CA010C94BA0E0F931F930091C70178
:102560001091C8012091C9013091CA01DC01CB0151
:10257000802B912BA22BB32B8093C7019093C80182
:10258000A093C901B093CA011F910F910C94BA0E88
:102590000F931F930091C7011091C8012091C901A9
:1025A0003091CA01DC01CB0180239123A223B32304
:1025B0008093C7019093C801A093C901B093CA0149
:1025C0001F910F910C94BA0E0F931F930091C701A6
:1025D0001091C8012091C9013091CA01DC01CB01E1
:1025E00080279127A227B3278093C7019093C80122
:1025F000A093C901B093CA011F910F910C94BA0E18
:102600001092C3011092C4011092C5011092C6012C
:102610000C94BA0E41E050E060E070E004C0440F5A
:10262000551F661F771F8A95D2F74093C3015093B9
:10263000C4016093C5017093C6010C94BA0E41E0C9
:1026400050E060E070E004C0440F551F661F771F24
:102650008A95D2F78091C3019091C401A091C501E0
:10266000B091C601842B952BA62BB72B8093C30169
:102670009093C401A093C501B093C6010C94BA0E07
:1026800041E050E060E070E004C0440F551F661F59
:10269000771F8A95D2F740955095609570958091F7
:1026A000C3019091C401A091C501B091C6018423DA
:1026B0009523A623B7238093C3019093C401A093CD
:1026C000C501B093C6010C94BA0E41E050E060E041
:1026D00070E004C0440F551F661F771F8A95D2F71C
:1026E0008091C3019091C401A091C501B091C60130
:1026F00084279527A627B7278093C3019093C40109
:10270000A093C501B093C6010C94BA0E0F931F930A
:102710000091C3011091C4012091C5013091C601FF
:10272000DC01CB01802B912BA22BB32B8093C30117
:102730009093C401A093C501B093C6011F910F915E
:102740000C94BA0E0F931F930091C3011091C40112
:102750002091C5013091C601DC01CB01802391237A
:10276000A223B3238093C3019093C401A093C50116
:10277000B093C6011F910F910C94BA0E0F931F9343
:102780000091C3011091C4012091C5013091C6018F
:10279000DC01CB0180279127A227B3278093C301B7
:1027A0009093C401A093C501B093C6011F910F91EE
:1027B0000C94BA0E08952CE0929F800D1124982F4E
:1027C000977071E001C0770F9A95EAF78695869524
:1027D000869525E0829FC001112450E040E0A62F9D
:1027E000B0E0FC01E40FF51FEB55FE4F60819D0149
:1027F000042E02C0369527950A94E2F721702195A0
:1028000026272723262720834F5F5F4F453051051A
:1028100041F708952CE0929F800D1124982F977016
:1028200086958695869525E0829FA001112470E00B
:1028300060E080E0FA01E60FF71FEB55FE4F2081C4
:1028400030E0092E02C0369527950A94E2F72170F0
:102850003327062E01C0220F0A94EAF7822B6F5FFE
:102860007F4F6530710531F70895BF92CF92DF92A7
:10287000EF92FF920F931F93CF93DF938C01C09041
:10288000C301D090C401E090C501F090C6018091D1
:10289000C7019091C801A091C901B091CA01C82A8D
:1028A000D92AEA2AFB2ACFE1D0E0BC2ED701C60103
:1028B0000C2E04C0B695A795979587950A94D2F7E4
:1028C00080FD0EC0219788F7B12C8B2DDF91CF9121
:1028D0001F910F91FF90EF90DF90CF90BF900895E0
:1028E000B8018C2F0E943506019761F3EECFCF938C
:1028F000DF93EC010E943514BE01DF91CF910C945F
:1029000035061F93CF93DF93EB0190916C019923D0
:1029100031F0CB01DF91CF911F910C947714882374
:1029200079F0CB010E943514182F682FCE010E9438
:10293000DB13BE01812FDF91CF911F910C943506DF
:10294000CB010E940A14182FF4CF8091CB018595FA
:102950008595859508958091CB018770089598E0BD
:10296000899F90011124622B6093CB010C941F135B
:102970009091CB01809589238093CB01282F2770DC
:1029800061F4282F082E000C330B9217130629F040
:102990008595859585950C94401308959091CB016C
:1029A000977081E009F480E00895909112019923D5
:1029B000E1F09091210297FF18C0E82FE695E69587
:1029C000E695EF3139F12091000130910101E20FDC
:1029D000F32FF11D877021E030E001C0220F8A95AE
:1029E000EAF78181822B8183089520910001309143
:1029F0000101F90132969FEF40E05191851751F0A6
:102A00009F3F19F4511101C0942F4F5F4E31A9F728
:102A10009F3F09F40895290F311D97FD3A95F9015B
:102A200082830895909112019923F1F090912102EF
:102A300097FF1AC0E82FE695E695E695EF3129F164
:102A40002091000130910101E20FF32FF11D282F99
:102A5000277081E090E001C0880F2A95EAF7809501
:102A60009181892381830895209100013091010192
:102A7000F9013296205E3F4F9191891303C0DF0127
:102A800011971C92E217F307B9F7089581E090E0DF
:102A9000E0910001F0910101E80FF91F1082019609
:102AA00080329105A9F708959091EF01892B8093C9
:102AB000EF010895982F90958091EF0189238093DD
:102AC000EF0108951092EF0108959091EE01892B86
:102AD0008093EE010895982F90958091EE018923BF
:102AE0008093EE0108951092EE0108959091ED010A
:102AF000892B8093ED010895982F90958091ED0199
:102B000089238093ED0108951092ED01089580933B
:102B1000CC0108951092CC010895209100013091CC
:102B20000101F9013196205E3F4F80E091919111B2
:102B30008F5FE217F307D1F70895E0910001F0915C
:102B400001018091EF018083E0910001F09101018A
:102B500080819091EE01892B8083E0910001F091BA
:102B6000010180819091ED01892B80839091CC01AE
:102B7000992361F0E0910001F09101018081892B9E
:102B800080830E948D1581111092CC0180910001EB
:102B9000909101010C94DC096DEE7EEF90E080E0F5
:102BA0000E948E2360E082E090E00E947C2360E03F
:102BB00083E090E00E947C2360E084E090E00E944B
:102BC0007C2360E085E090E00E947C2360E086E06A
:102BD00090E00C947C2390E080E00E94762321E03A
:102BE0008D3E9E4F09F020E0822F089582E090E014
:102BF0000C946E23682F82E090E00C947C2383E099
:102C000090E00C946E23682F83E090E00C947C237A
:102C100084E090E00C946E23682F84E090E00C94A4
:102C20007C2386E090E00C946E23682F86E090E091
:102C30000C947C2380912802843051F11092F10190
:102C400088E190E020E40FB6F894A89580936000A6
:102C50000FBE2093600080E00E94E80580E00E94A3
:102C6000160683B7817F846083BF83B7816083BF8B
:102C70007894889583B78E7F83BF0FB6F894A89514
:102C800080916000886180936000109260000FBEA8
:102C9000089508950895CF930E9449160E9400094F
:102CA0000E944A16C0E08C2F0E94C109892B31F482
:102CB000CF5FC430C1F780E0CF91089581E0FCCFB1
:102CC0000E94CE0E0E94931A0E94D0090C94160600
:102CD0001F920F920FB60F9211248F939F93AF9371
:102CE000BF938091F101811113C080911D029091D9
:102CF0001E02A0911F02B09120024196A11DB11D9C
:102D000080931D0290931E02A0931F02B093200295
:102D1000BF91AF919F918F910F900FBE0F901F9019
:102D2000189582E084BD93E095BD9AEF97BD80939E
:102D30006E0008952FB7F89480911D0290911E02A5
:102D4000A0911F02B09120022FBF0895CF92DF9271
:102D5000EF92FF920F931F932FB7F89440911D02AB
:102D600050911E0260911F02709120022FBF6A01D4
:102D70007B01EE24FF248C0130E020E0C016D10658
:102D8000E206F30650F0481B590BCA011F910F9140
:102D9000FF90EF90DF90CF90089541505109F3CF0D
:102DA0001F920F920FB60F9211248F939F93AF93A0
:102DB000BF9380911D0290911E02A0911F02B091BD
:102DC00020020196A11DB11D80931D0290931E0249
:102DD000A0931F02B0932002BF91AF919F918F915A
:102DE0000F900FBE0F901F9018950E94141FF8941B
:102DF0002FEF87EA91E6215080409040E1F700C034
:102E0000000087E090EBDC01809331029093320266
:102E1000A0933302B093340288E19CE00FB6F8949B
:102E2000A895809360000FBE90936000FFCFAF9293
:102E3000BF92CF92DF92EF92FF920F931F93CF93A7
:102E4000C0E0CC24C394D12CE82EF12C8C2F0E940E
:102E5000C1095C0110E000E0C601002E02C0880F2D
:102E6000991F0A94E2F78A219B21892B99F40F5F1D
:102E70001F4F0C30110581F7CF5FC43039F780E068
:102E8000CF911F910F91FF90EF90DF90CF90BF9067
:102E9000AF900895602F7C2F80E00E941906E816FD
:102EA000F90629F781E0ECCFCF93C82F8CE20E947E
:102EB0001717882321F08C2FCF910C94171780E0DF
:102EC000CF910895CF930E94EB15811102C00E940B
:102ED000CC15C5E608C00E9400098FE39CE9019764
:102EE000F1F700C00000C150B1F789E20E94541709
:102EF0008111EFC08AE20E94541781110E94CC1503
:102F000085E00E94541781110E94F5160E94F61563
:102F10008093F00187E00E945417882371F08BE1C1
:102F20000E945417882309F4B1C09091F001892FB1
:102F30008D7F91FF82608093F0018091F0010E946B
:102F4000FA150E94081690E09093220280932102C5
:102F500080EE0E945417882341F090912102892F1E
:102F60008E7F90FF81608093210289E30E94541735
:102F7000882341F090912102892F8D7F91FF8260FB
:102F80008093210282EE0E945417882341F0909191
:102F90002102892F8B7F92FF84608093210286EE2D
:102FA0000E945417882341F090912102892F877F36
:102FB00093FF88608093210283EE0E945417882338
:102FC00041F090912102892F8F7E94FF8061809340
:102FD000210285E30E945417882341F09091210239
:102FE000892F8F7D95FF80628093210281E30E946B
:102FF0005417882341F090912102892F8F7B96FFEF
:1030000080648093210281E10E945417882341F05B
:1030100090912102892F97FB87F980588093210294
:10302000809121020E940C1687E20E945417C82F3B
:103030008EE10E9454178111C2608FE10E945417E3
:103040008111C46080E20E9454178111C86081E23E
:103050000E9454178111C06182E20E9454178111AD
:10306000C06283E20E9454178111C06484E20E940E
:103070005417882341F1C0688C2F0E9403166C2FCF
:1030800070E090E080E0CF910C94A2128EE00E945C
:103090005417882339F09091F001892F8B7F92FF8C
:1030A000846049CF80E10E9454179091F0018823F9
:1030B00029F0892F877F93FF88603DCF892F8E7FEE
:1030C00090FF816038CFC111D7CF0E94FF15682FC4
:1030D000D7CFCF9108958091F40180FF12C0609105
:1030E000050185E0689FB001112475956795759578
:1030F000679560387105A8F561157105A1F1862FF6
:10310000089581FF09C06091050185E0689FB001C5
:10311000112475956795EDCF82FF07C06091050179
:1031200085E0689FB0011124E4CF2091F5012223AE
:10313000A9F0909104016091050185E0689FB001BC
:1031400011242917B0F6269FA001279F500D1124A6
:10315000692F70E0CA010E944023CBCF65E070E088
:10316000CECF8FE7089581E008958091F40180FF2C
:103170000CC06091030170E0759567957595679532
:103180006115710549F1862F089581FF06C0609190
:10319000030170E075956795F3CF6091030182FD9F
:1031A0000BC09091F5019923A1F0609102018091EB
:1031B0000301961738F0682F70E06038710500F34E
:1031C0008FE70895899FC001112470E00E94402379
:1031D000F4CF61E070E0D7CF81E00895803F31F413
:1031E0000E946B1881958093F8010895813F19F42E
:1031F0000E946B18F8CF823F31F40E946B188195C2
:103200008093F7010895833F19F40E946B18F8CF5B
:10321000893F29F40E94B5188093F90108958A3FE7
:1032200021F40E94B5188195F7CF8B3F31F40E94AD
:10323000B51881958093FA0108958C3F19F40E9486
:10324000B518F8CF843F31F48091F6018160809306
:10325000F6010895853F21F48091F6018260F7CF51
:10326000863F21F48091F6018460F1CF873F21F4FD
:103270008091F6018860EBCF883F21F48091F601C0
:103280008061E5CF8D3F31F48091F40181608093BE
:10329000F40108958E3F21F48091F4018260F7CF0C
:1032A0008F3FB9F78091F4018460F1CF803FC1F482
:1032B0008091F80187FD1092F8018091F70181114A
:1032C0000EC08091F80181110AC08091F90181112D
:1032D00006C08091FA01811102C01092F501089593
:1032E000813F29F48091F80118162CF3E6CF9091D4
:1032F000F701823F29F497FFE0CF1092F701DDCF6D
:10330000833F19F41916CCF3D8CF893F39F4809153
:10331000F901181694F61092F901CFCF8A3F29F4DB
:103320008091F90187FFC9CFF6CF8B3F39F48091A7
:10333000FA0187FFC2CF1092FA01BFCF8C3F29F468
:103340008091FA011816BCF3B8CF843F31F4809114
:10335000F6018E7F8093F601B0CF853F21F48091F6
:10336000F6018D7FF7CF863F21F48091F6018B7FA8
:10337000F1CF873F21F48091F601877FEBCF883F23
:1033800021F48091F6018F7EE5CF8D3F31F480915D
:10339000F4018E7F8093F40190CF8E3F21F48091D1
:1033A000F4018D7FF7CF8F3F09F087CF8091F40133
:1033B0008B7FF0CF86EF91E00E94E7090E949A167A
:1033C0009093F3018093F20108951F93CF93DF93BD
:1033D0008091F2019091F3010E94A616AC019091A8
:1033E000F5012091060130E0911106C020910701FE
:1033F0008AE0289F900111244217530780F08091A2
:10340000F701C091F8011091F901D091FA018111F1
:103410000AC0C11178C0111176C0D11174C0DF91FA
:10342000CF911F9108959F3F19F09F5F9093F501F1
:10343000181624F40E946B188093F7018091F7010D
:1034400087FF05C00E946B1881958093F7011C16B9
:1034500024F40E946B188093F8018091F80187FF93
:1034600005C00E946B1881958093F8016091F70167
:10347000662331F1C091F801CC2311F1062E000C26
:10348000770B880B990B0E94472223E333E343E336
:103490005FE30E94AB220E940F226093F7016C2F22
:1034A000CC0F770B880B990B0E94472223E333E361
:1034B00043E35FE30E94AB220E940F226093F80176
:1034C000111624F40E94B5188093F9018091F90136
:1034D00087FF05C00E94B51881958093F9011D16DC
:1034E00024F40E94B5188093FA018091FA0187FFB5
:1034F00005C00E94B51881958093FA01DF91CF91A4
:103500001F910C94DA199F3F09F08FCFA0CF85E06F
:10351000E6EFF1E0DF011D928A95E9F71092F501DF
:103520001092F40108950E94EB15811102C00E94CF
:10353000CC150E9411168093230280FF03C086954C
:103540000C94E80580E0FCCF80912302982F96959B
:10355000943030F49F5F990F8170892B8093230200
:10356000809123028160809323020E94151680912E
:10357000230286950C94E80580912302982F9E7F64
:1035800079F08250809323028E7F91E009F490E0DD
:103590008091230290FB80F9809323020E941516EC
:1035A0008091230286950C94E80590912302892F3F
:1035B0008E7F90FF8160809323020E941516809178
:1035C000230280FF03C086950C94E80580E0FCCFC1
:1035D00090912302892F86958F5F8F779170853028
:1035E000B8F4880F892B80932302809123028E7F69
:1035F00091E009F490E08091230290FB80F98093A0
:1036000023020E9415168091230286950C94E805EA
:1036100090932302EACF90912302292F26958227A7
:10362000880F9170982B909323029E7F21E009F4DC
:1036300020E08091230220FB80F9809323020E94E6
:1036400015168091230286950C94E80580911B0243
:103650000895CF93DF9300D01F92CDB7DEB79C01C2
:1036600080912802843019F593E099833B832A8363
:103670009093E9008FEF9091E800815095FD06C08E
:1036800095ED9A95F1F700008111F5CF8091E80052
:1036900085FF0DC050E040E063E070E0CE01019690
:1036A0000E94841D8091E8008E778093E8000F903F
:1036B0000F900F90DF91CF910895CF93DF9300D0BB
:1036C0001F92CDB7DEB720912802243031F522E0D9
:1036D0002983805891099B838A8383E08093E90042
:1036E0008FEF9091E800815095FD06C095ED9A9579
:1036F000F1F700008111F5CF8091E80085FF0DC042
:1037000050E040E063E070E0CE0101960E94841D2D
:103710008091E8008E778093E8000F900F900F90D3
:10372000DF91CF9108959C01809128028430F9F4B3
:1037300082E08093E9009FEF8091E800915085FD41
:1037400006C085ED8A95F1F700009111F5CF8091C3
:10375000E80085FF0CC050E040E065E070E0C90182
:103760000E94841D8091E8008E778093E800089580
:10377000CF93DF93EC01809128028430F1F4909193
:1037800012019923E9F09091210297FF19C08093CB
:10379000E9008FEF9091E800815095FD06C095E11A
:1037A0009A95F1F700008111F5CF8091E80050E083
:1037B00040E060E270E085FD1AC0DF91CF9108958E
:1037C00081E08093E9008FEF9091E800815095FDB2
:1037D00006C095ED9A95F1F700008111F5CF809123
:1037E000E80085FFEACF50E040E068E070E0CE01FD
:1037F0000E94841D8091E8008E778093E80080E22B
:10380000FE01ABEFB1E001900D928A95E1F7D5CFC3
:1038100080912702811109C00E94141F0E94711F0C
:103820008091E20084608093E20008951092270264
:103830000895089508950C94601642E061EC81E0CB
:103840000E94921E42E061EC82E00E94921E42E0E1
:1038500061EC83E00E94921E42E261EC84E00C94F1
:10386000921E80912A02833009F455C030F48130D1
:1038700071F1823009F491C008958A3009F47DC055
:103880008B3009F463C0893009F044C0809129026B
:10389000813209F03FC080912D0290912E02009755
:1038A00011F00397B9F58091E800877F8093E800D5
:1038B0008091E80082FF2AC08091F10080931B0272
:1038C0008091E8008B778093E8000C94C61E80916D
:1038D0002902813AF9F48091E800877F8093E8001B
:1038E00080912D0290912E02892B61F460E28BEF82
:1038F00091E070E00E94D31D8091E8008B77809367
:10390000E800089560E090E080E0F3CF8091280225
:103910008111CECF089580912902813AD9F7809103
:103920002D0290912E02892BA9F78091E800877FC4
:103930008093E8008091E80080FFFCCF8091120125
:103940008093F1008091E8008E77BDCF80912902AD
:10395000813201F780912D0290912E02892BD1F6B0
:103960008091E800877F8093E8000E94C61E8091C6
:103970002B02809312010C94CE0E80912902813289
:1039800049F68091E800877F8093E8000E94C61E78
:1039900080912C0280931C02089580912902813A23
:1039A00009F0B8CF8091E800877F8093E80080918C
:1039B000E80080FFFCCF80911C02C2CF84B7877FD4
:1039C00084BF0FB6F894A8958091600088618093B9
:1039D0006000109260000FBE80E88093610010923A
:1039E00061000E941F0A0E94141F0E94711F809193
:1039F000E20084608093E20078940E94F3210E94A8
:103A0000210A88E091E00E94CB098091280285304C
:103A100019F00E94290AF9CF0E941A1680912602F5
:103A2000882399F30E944B16882379F30E946E1D18
:103A3000ECCF292F33272330310579F158F4213089
:103A40003105F1F02230310519F190E080E030E0ED
:103A500020E01AC02132310599F122323105A9F74F
:103A6000643098F770E0FB01EE0FFF1FE95DFE4F39
:103A7000208131816D5D7E4FFB01808190E004C02B
:103A800082E190E029E437E0FA0131832083089550
:103A90008DE690E02CED36E0F7CF99278130910547
:103AA00061F028F0029789F6ECEAF6E002C0E8ED52
:103AB000F6E0849190E09F01E7CFE0ECF6E0F9CFEB
:103AC000643008F0C2CFE62FF0E0EE0FFF1FE15D9B
:103AD000FE4F2081318189E090E0D6CF80E189BD21
:103AE00082E189BD09B400FEFDCF8091D8008F7DB1
:103AF0008093D8008091E00082608093E000809104
:103B0000E00081FDFCCF0895AF92BF92CF92DF928B
:103B1000FF920F931F93CF93DF936C01EB018A0108
:103B20000E94E51EF82E811123C00115110539F000
:103B3000F80180819181C81BD90BC80ED91EB12C08
:103B4000A12C2097A9F08091E80085FD22C08091EA
:103B5000E8008E778093E80001151105A1F0F801C7
:103B600080819181A80EB91EB182A08285E0F82ED5
:103B70008F2DDF91CF911F910F91FF90DF90CF900C
:103B8000BF90AF9008950E94E51E8823D1F2F82ED1
:103B9000EFCFF60181916F018093F1002197FFEF44
:103BA000AF1ABF0ACECFFC0180912F029091300254
:103BB00086179707A0F06115710529F49091E80028
:103BC0009E779093E80090E06115710551F4911192
:103BD00008C08091E80082FF35C080E00895BC01F4
:103BE000F2CF809128028823C9F18530C9F18091F4
:103BF000E80083FD31C08091E80082FDEACF80912A
:103C0000E80080FFE1CF2091F3008091F200322F95
:103C1000282F6115710519F02830310558F091E011
:103C20002830310509F090E02091E8002E772093AC
:103C3000E800CACF81918093F100615071092F5F34
:103C40003F4FE7CF80912802882341F0853041F033
:103C50008091E80083FFBDCF81E0089582E0089560
:103C600083E00895FC0180912F0290913002861725
:103C70009707A0F06115710529F48091E8008E770F
:103C80008093E80090E06115710551F4911108C02E
:103C90008091E80082FF36C080E00895BC01F2CF39
:103CA000809128028823D1F18530D1F18091E800FC
:103CB00083FD32C08091E80082FDEACF8091E80068
:103CC00080FFE1CF2091F3008091F200322F282F66
:103CD0006115710519F02830310558F091E0283050
:103CE000310509F090E08091E8008E778093E8003C
:103CF000CACF84918093F1003196615071092F5F92
:103D00003F4FE6CF80912802882341F0853041F073
:103D10008091E80083FFBCCF81E0089582E00895A0
:103D200083E00895982F973028F08F708093E900F2
:103D300081E008959093E900242F762F50E09817A2
:103D400031F07091EC002091ED005091F00021FDD8
:103D500002C09F5FE8CF3091EB003E7F3093EB00D5
:103D60003091ED003D7F3093ED003091EB003160FC
:103D70003093EB007093EC002093ED005093F00033
:103D80002091EE0027FDE5CF80E008958091290283
:103D900087FF13C08091E80082FF06C08091E80091
:103DA0008B778093E80004C0809128028111F2CFC4
:103DB0000895809128028823D9F38091E80080FF3C
:103DC000F8CF8091E8008E77ECCF2091E40030911D
:103DD000E50085E69091EC0090FF06C09091E80028
:103DE00090FF06C080E008959091E80092FDFACF20
:103DF00090912802992391F0953091F09091EB00E9
:103E000095FD10C04091E4005091E500241735075E
:103E100009F381509A01F1F684E0089582E0089553
:103E200083E0089581E008950E94821F0E948A1F06
:103E3000E0EEF0E0808181608083E8EDF0E0808159
:103E40008F77808319BCA7EDB0E08C918E7F8C9327
:103E500080818F7E80831092270208950F931F9395
:103E6000CF93DF930E94821F0E948A1FC8EDD0E08B
:103E700088818F77888388818068888388818F7D17
:103E8000888319BC109228021092240210922602F4
:103E90001092250200EE10E0F80180818B7F808374
:103EA00088818160888342E060E080E00E94921E09
:103EB000E1EEF0E080818E7F8083E2EEF0E08081B1
:103EC00081608083808188608083F80180818E7F1B
:103ED0008083888180618883DF91CF911F910F91CA
:103EE0000895E8EDF0E080818F7E8083E7EDF0E0DB
:103EF00080818160808384E082BF81E0809327029B
:103F00000C942E1FE8EDF0E080818E7F808310926C
:103F1000E20008951092DA001092E10008951F92D5
:103F20000F920FB60F9211242F933F934F935F93ED
:103F30006F937F938F939F93AF93BF93EF93FF9371
:103F40008091E10082FF0BC08091E20082FF07C0F8
:103F50008091E1008B7F8093E1000E94F2218091AB
:103F6000DA0080FF19C08091D80080FF15C08091D1
:103F7000DA008E7F8093DA008091D90080FF94C0B0
:103F800080E189BD82E189BD09B400FEFDCF81E0F9
:103F9000809328020E94081C8091E10080FF19C0D4
:103FA0008091E20080FF15C08091E2008E7F8093B7
:103FB000E2008091E20080618093E2008091D8006D
:103FC00080628093D80019BC85E0809328020E940B
:103FD0001A1C8091E10084FF29C08091E20084FFD7
:103FE00025C080E189BD82E189BD09B400FEFDCF15
:103FF0008091D8008F7D8093D8008091E1008F7EE2
:104000008093E1008091E2008F7E8093E2008091B6
:10401000E20081608093E20080912402882309F409
:1040200049C084E0809328020E941B1C8091E1001B
:1040300083FF29C08091E20083FF25C08091E100C9
:10404000877F8093E10082E080932802109224020F
:104050008091E1008E7F8093E1008091E2008E7F6D
:104060008093E2008091E20080618093E20042E070
:1040700060E080E00E94921E8091F0008860809352
:10408000F0000E94191CFF91EF91BF91AF919F9199
:104090008F917F916F915F914F913F912F910F90F1
:1040A0000FBE0F901F90189519BC109228020E9405
:1040B000161C72CF8091E30087FD02C081E0B2CF71
:1040C00083E0B0CF1F920F920FB60F9211242F935F
:1040D0003F934F935F936F937F938F939F93AF9390
:1040E000BF93CF93EF93FF93C091E900CF7080917E
:1040F000EC001092E9008091F000877F8093F0003F
:1041000078940E949E201092E9008091F0008860CF
:104110008093F000C093E900FF91EF91CF91BF91A0
:10412000AF919F918F917F916F915F914F913F914F
:104130002F910F900FBE0F901F9018951F93CF9344
:10414000DF93CDB7DEB7AA970FB6F894DEBF0FBEE8
:10415000CDBFE9E2F2E08091F100819322E0E1330A
:10416000F207C9F70E94311C8091E80083FF42C02A
:104170008091290290912A029A3008F03BC0E92FE1
:10418000F0E0EB53FF4D0C945423CF20F320FA20A2
:10419000F320FA204E217021FA20C521D221803847
:1041A00079F0823839F580912D028F708093E90083
:1041B0008091EB0085FB882780F91092E90006C00A
:1041C0008091250290912602911182609091E800E1
:1041D000977F9093E8008093F1001092F100809116
:1041E000E8008E772DC0282F2D7F21F48823D1F071
:1041F000823059F18091E80083FF0AC08091E80085
:10420000877F8093E8008091EB0080628093EB00D1
:10421000AA960FB6F894DEBF0FBECDBFDF91CF9147
:104220001F91089580912B02813021F7933009F07E
:1042300080E0809326021092E9008091E800877F59
:104240008093E8000E94C61ED5CF80912B02811179
:10425000F2CF80912D028F7069F28093E900209156
:10426000EB0020FFE8CF933031F48091EB008062C7
:104270008093EB00E0CF9091EB0090619093EB0086
:1042800021E030E001C0220F8A95EAF72093EA008E
:104290001092EA008091EB008860EACF8111AACFEA
:1042A00010912B021F778091E3008078812B8093FF
:1042B000E3008091E800877F8093E8000E94C61E9B
:1042C0008091E80080FFFCCF8091E30080688093BC
:1042D000E30083E0111101C082E0809328028ACFBD
:1042E0008058823008F086CF80912B0290912C026A
:1042F0008C3D23E09207A1F583E08A838AE28983DB
:104300004FB7F894DE01139620E03EE051E2E32F30
:10431000F0E050935700E49120FF03C0E295EF7066
:104320003F5FEF708E2F90E0EA30C0F0C7968D931C
:104330009D932F5F243159F74FBF8091E800877F0D
:104340008093E8006AE270E0CE0101960E94D31DDE
:104350008091E8008B778093E8004CCFC096E7CF40
:10436000AE014F5F5F4F60912D020E94191DBC018D
:10437000892B09F43FCF9091E800977F9093E80054
:1043800089819A810E94321EE3CF803809F032CFB2
:104390008091E800877F8093E800809124028093D9
:1043A000F1001DCF811126CF90912B02923008F0A1
:1043B00021CF8091E800877F8093E80090932402CA
:1043C0000E94C61E80912402882331F084E08093ED
:1043D00028020E941D1C0ECF8091E30087FDF6CFBE
:1043E00081E0F5CF0895CF9380912802882399F03A
:1043F000C091E900CF708091EC0080FD0EC080E09C
:10440000C82B1092E9008091E80083FD0E949E2055
:10441000CF70C093E900CF91089580E8F1CF0E945A
:1044200016226894B1110C94A52208950E948A2244
:1044300088F09F5798F0B92F9927B751B0F0E1F065
:10444000660F771F881F991F1AF0BA95C9F714C015
:10445000B13091F00E94A422B1E008950C94A422FE
:10446000672F782F8827B85F39F0B93FCCF386954E
:1044700077956795B395D9F73EF4909580957095AB
:1044800061957F4F8F4F9F4F0895E89409C097FB28
:104490003EF490958095709561957F4F8F4F9F4F1B
:1044A0009923A9F0F92F96E9BB279395F69587955F
:1044B00077956795B795F111F8CFFAF4BB0F11F422
:1044C00060FF1BC06F5F7F4F8F4F9F4F16C08823C9
:1044D00011F096E911C0772321F09EE8872F762FFF
:1044E00005C0662371F096E8862F70E060E02AF040
:1044F0009A95660F771F881FDAF7880F969587952C
:1045000097F9089557FD9058440F551F59F05F3F94
:1045100071F04795880F97FB991F61F09F3F79F0E5
:1045200087950895121613061406551FF2CF469567
:10453000F1DF08C0161617061806991FF1CF8695E9
:104540007105610508940895E894BB2766277727CD
:10455000CB0197F908950E94BE220C942F230E944C
:10456000212338F00E94282320F0952311F00C9489
:1045700018230C941E2311240C94A5220E9482223D
:1045800070F3959FC1F3950F50E0551F629FF001A6
:10459000729FBB27F00DB11D639FAA27F00DB11DBF
:1045A000AA1F649F6627B00DA11D661F829F222748
:1045B000B00DA11D621F739FB00DA11D621F839FCF
:1045C000A00D611D221F749F3327A00D611D231FA5
:1045D000849F600D211D822F762F6A2F11249F57F3
:1045E00050409AF0F1F088234AF0EE0FFF1FBB1FF6
:1045F000661F771F881F91505040A9F79E3F5105B5
:1046000080F00C9418230C94A5225F3FE4F3983EAD
:10461000D4F3869577956795B795F795E7959F5F5E
:10462000C1F7FE2B880F911D9695879597F90895F0
:1046300097F99F6780E870E060E008959FEF80EC55
:10464000089500240A9416161706180609060895F8
:1046500000240A9412161306140605060895092E5E
:104660000394000C11F4882352F0BB0F40F4BF2BCD
:1046700011F460FF04C06F5F7F4F8F4F9F4F08950D
:1046800097FB072E16F4009407D077FD09D00E94FF
:104690005A2307FC05D03EF4909581959F4F0895CD
:1046A000709561957F4F0895EE0FFF1F0590F4916F
:1046B000E02D0994AA1BBB1B51E107C0AA1FBB1F19
:1046C000A617B70710F0A61BB70B881F991F5A959E
:1046D000A9F780959095BC01CD010895F999FECF79
:1046E00092BD81BDF89A992780B50895A8E1B0E000
:1046F00042E050E00C949623262FF999FECF92BD0C
:1047000081BDF89A019700B4021639F01FBA20BD96
:104710000FB6F894FA9AF99A0FBE08950196272FCA
:104720000E947D230C947C23DC01CB01FC01F999D0
:10473000FECF06C0F2BDE1BDF89A319600B40D92ED
:0C47400041505040B8F70895F894FFCFA6
:10474C00CD012808140A321E261BB81B931B5D1BB7
:10475C00291B01F1F0C6676630943137353497F474
:10476C00F5F6F7404D36391708CA0794075B07EE84
:08477C000607072007390700BA
:00000001FF
